:060000000A128A11FA2F1A
:100F70003F30831203139F05831603131F139F171C
:100F8000F0309F05831203131F14C7309F0508001C
:100F90000A128A11B8270A128A11FF308316031326
:100FA0008500860188018312031306108312031340
:100FB0008518D62F0830F200F20BDC2F83120313B2
:100FC0001F151F19E12F1E08F101F10783160313E6
:100FD0001E08F001F0077108803AFF0082307F029E
:100FE000031DF42F01307002031CD62F831203134C
:100FF0008614D62FF001F10183010A128A11C82F3D
:02400E00B9FFF8
:00000001FF
